:100000000C944F000C946E000C946E000C946E00D7
:100010000C946E000C946E000C946E000C946E00A8
:100020000C946E000C946E000C946E000C946E0098
:100030000C946E000C946E000C946E000C946E0088
:100040000C946E000C946E000C946E000C946E0078
:100050000C946E000C946E000C946E000C946E0068
:100060000C946E000C946E000C946E000C946E0058
:100070000C946E000C946E000C946E000C946E0048
:100080000C946E000C946E000C946E007A01810149
:10009000A901BB01DF01E601F801FF01CD01112437
:1000A0001FBECFEFD0E4DEBFCDBF11E0A0E0B1E0D6
:1000B000ECE4F8E000E00BBF02C007900D92A03323
:1000C000B107D9F721E0A0E3B1E001C01D92A73349
:1000D000B207E1F70E944C020C9424040C94000037
:1000E000CF93DF9300D01F92CDB7DEB789837B8398
:1000F0006A8389818A3031F48A819B81BC018DE0D9
:100100000E94700080EC90E0FC018081882F90E0DC
:1001100080729927892BB1F386EC90E02981FC014C
:10012000208380E090E00F900F900F90DF91CF91AF
:1001300008950F931F93CF93DF9300D000D0CDB7D6
:10014000DEB769837A838B839C83809131019091A0
:100150003201A0913301B09134019C01AD0169815C
:100160007A818B819C810E949002882309F477C058
:1001700020E030E0A90169817A818B819C810E9415
:100180009002882351F481E990E021E930E0F901FF
:1001900020812870FC01208309C081E990E021E9D9
:1001A00030E0F90120812360FC01208328E539E358
:1001B00044E75FE369817A818B819C810E94900290
:1001C000882344F488E990E02FEF3FEFFC0131836E
:1001D000208334C020E034E244EF56E469817A8120
:1001E0008B819C810E94B203181634F488E990E058
:1001F000FC011182108222C008E910E020E030E00A
:1002000040E053E469817A818B819C810E94B7032D
:10021000DC01CB019C01AD0160E074E284EF9AE463
:100220000E949502DC01CB01BC01CD010E940703B5
:10023000DC01CB010197F8019183808384E990E090
:10024000FC011182108289819A81AB81BC818093EB
:10025000310190933201A0933301B0933401000037
:100260000F900F900F900F90DF91CF911F910F91F2
:100270000895CF93DF93CDB7DEB780E990E020E417
:10028000FC01208381E990E02BE0FC01208360E009
:1002900070E0CB010E9499000000DF91CF9108959A
:1002A000CF93DF93CDB7DEB780E990E0FC011082F9
:1002B00081E990E0FC0110820000DF91CF91089568
:1002C000CF93DF93CDB7DEB78091350190913601A2
:1002D000CC01A0E0B0E040E050E028E030E0841B3A
:1002E000950B2817390708F49CC08A5B9F4FFC01C7
:1002F0000C94870282E090E0909336018093350160
:1003000095C080913001813039F484E090E0909381
:100310003601809335018AC080913001823039F4F2
:1003200086E090E090933601809335017FC0809104
:100330003001843039F483E090E09093360180936B
:10034000350174C081E090E09093360180933501CF
:100350006DC080913001843039F488E090E0909352
:1003600036018093350162C082E090E090933601BF
:10037000809335015BC080913001843039F483E093
:1003800090E0909336018093350150C082E090E078
:10039000909336018093350149C0809130018430BB
:1003A00039F488E090E090933601809335013EC0A7
:1003B00081E090E0909336018093350137C085E06D
:1003C00090E0909336018093350130C080913001E8
:1003D000813039F485E090E09093360180933501C7
:1003E00025C081E090E090933601809335011EC0D6
:1003F00087E090E0909336018093350117C080919B
:100400003001823039F487E090E090933601809398
:1004100035010CC081E090E0909336018093350166
:1004200005C010923601109235010000809135010F
:100430009091360184309105A1F08530910518F432
:10044000029739F024C086309105A9F0089721F071
:100450001EC00E9450011CC00E94390110920E0162
:1004600017C080910E01873080F480910E018F5F5C
:1004700080930E010AC080910E01882341F0809183
:100480000E01815080930E0102C0000001C00000E7
:100490000000DF91CF910895CF93DF93CDB7DEB702
:1004A00081E290E0FC01108282E290E02FEFFC01FB
:1004B000208384E290E02FEFFC01208385E290E02E
:1004C00020E4FC0120830E94390110923601109231
:1004D000350180E290E0FC018081809587708093F7
:1004E00030010E94600180910E01882F90E0880FFA
:1004F000991F880F991F815F9E4FFC018081918118
:10050000A281B381BC01CD010E949900E2CFEE0F20
:10051000FF1F0024001C0BBE0790F691E02D0994EC
:100520000E943D0308F481E008950E94A9020C9402
:1005300078030E94710358F00E946A0340F029F486
:100540005F3F29F00C94610351110C94AC030C949F
:1005500067030E94890368F39923B1F3552391F34C
:10056000951B550BBB27AA2762177307840738F022
:100570009F5F5F4F220F331F441FAA1FA9F335D07F
:100580000E2E3AF0E0E832D091505040E695001C33
:10059000CAF72BD0FE2F29D0660F771F881FBB1FED
:1005A000261737074807AB07B0E809F0BB0B802DCB
:1005B000BF01FF2793585F4F3AF09E3F510578F0F7
:1005C0000C9461030C94AC035F3FE4F3983ED4F3C6
:1005D000869577956795B795F7959F5FC9F7880FCB
:1005E000911D9695879597F90895E1E0660F771F1D
:1005F000881FBB1F621773078407BA0720F0621BAE
:10060000730B840BBA0BEE1F88F7E09508950E94D8
:100610000E036894B1110C94AC0308950E949103E9
:1006200088F09F5798F0B92F9927B751B0F0E1F0B3
:10063000660F771F881F991F1AF0BA95C9F714C063
:10064000B13091F00E94AB03B1E008950C94AB037C
:10065000672F782F8827B85F39F0B93FCCF386959C
:1006600077956795B395D9F73EF4909580957095F9
:1006700061957F4F8F4F9F4F0895990F0008550F39
:10068000AA0BE0E8FEEF16161706E807F907C0F018
:1006900012161306E407F50798F0621B730B840B20
:1006A000950B39F40A2661F0232B242B252B21F4FA
:1006B00008950A2609F4A140A6958FEF811D811D9A
:1006C000089597F99F6780E870E060E008959FEFD4
:1006D00080EC089500240A941616170618060906D9
:1006E000089500240A9412161306140605060895A8
:1006F000092E0394000C11F4882352F0BB0F40F430
:10070000BF2B11F460FF04C06F5F7F4F8F4F9F4F6F
:10071000089557FD9058440F551F59F05F3F71F0F1
:100720004795880F97FB991F61F09F3F79F0879558
:100730000895121613061406551FF2CF4695F1DFE1
:1007400008C0161617061806991FF1CF8695710571
:10075000610508940895E894BB2766277727CB01A5
:1007600097F908950E943D0308F48FEF08950E94C1
:10077000CA030C9478030E946A0338F00E94710344
:1007800020F0952311F00C9461030C94670311245D
:100790000C94AC030E94890370F3959FC1F3950FED
:1007A00050E0551F629FF001729FBB27F00DB11DF5
:1007B000639FAA27F00DB11DAA1F649F6627B00D85
:1007C000A11D661F829F2227B00DA11D621F739F6E
:1007D000B00DA11D621F839FA00D611D221F749F7C
:1007E0003327A00D611D231F849F600D211D822FC3
:1007F000762F6A2F11249F5750409AF0F1F08823EA
:100800004AF0EE0FFF1FBB1F661F771F881F915016
:100810005040A9F79E3F510580F00C9461030C9461
:10082000AC035F3FE4F3983ED4F3869577956795E4
:10083000B795F795E7959F5FC1F7FE2B880F911D40
:0C0840009695879597F90895F894FFCFDE
:10084C00000000020000000070000000000008A47E
:10085C00D082437BD49243A4D0A443719DAE430079
:10086C0000C4430000DC43A4F0F64300D002440073
:00000001FF
