:100000000C9446000C9465000C9465000C946500FB
:100010000C9465000C9465000C9465000C946500CC
:100020000C9465000C9465000C9465000C946500BC
:100030000C9465000C9465000C9465000C946500AC
:100040000C9465000C9465000C9465000C9465009C
:100050000C9465000C9465000C9465000C9465008C
:100060000C9465000C9465000C9465000C9465007C
:100070000C9465000C9465000C9465000C9465006C
:100080000C9465000C9465000C94650011241FBE4F
:10009000CFEFD0E4DEBFCDBF11E0A0E0B1E0E4EAF5
:1000A000F7E000E00BBF02C007900D92AE30B10741
:1000B000D9F721E0AEE0B1E001C01D92A531B20751
:1000C000E1F70E9414020C94D0030C940000CF932B
:1000D000DF9300D01F92CDB7DEB789837B836A831D
:1000E00089818A3031F48A819B81BC018DE00E9434
:1000F000670080EC90E0FC018081882F90E08072A6
:100100009927892BB1F386EC90E02981FC012083AB
:1001100080E090E00F900F900F90DF91CF910895C5
:100120000F931F93CF93DF9300D000D0CDB7DEB7EE
:1001300069837A838B839C8380910F019091100156
:10014000A0911101B09112019C01AD0169817A81E8
:100150008B819C810E943C02882309F477C020E0B7
:1001600030E0A90169817A818B819C810E943C02E7
:10017000882351F481E990E021E930E0F901208100
:100180002870FC01208309C081E990E021E930E07A
:10019000F90120812360FC01208328E539E344E74D
:1001A0005FE369817A818B819C810E943C02882374
:1001B00044F488E990E02FEF3FEFFC013183208386
:1001C00034C020E034E244EF56E469817A818B81C7
:1001D0009C810E945E03181634F488E990E0FC01CB
:1001E0001182108222C008E910E020E030E040E0F7
:1001F00053E469817A818B819C810E946303DC01D5
:10020000CB019C01AD0160E074E284EF9AE40E94AE
:100210004102DC01CB01BC01CD010E94B302DC0133
:10022000CB010197F8019183808384E990E0FC0180
:100230001182108289819A81AB81BC8180930F01E8
:1002400090931001A0931101B093120100000F9040
:100250000F900F900F90DF91CF911F910F91089504
:10026000CF93DF93CDB7DEB780E990E020E4FC01C7
:10027000208381E990E02BE0FC01208360E070E0C6
:10028000CB010E9490000000DF91CF910895CF93A1
:10029000DF93CDB7DEB780E990E0FC01108281E901
:1002A00090E0FC0110820000DF91CF910895CF9380
:1002B000DF93CDB7DEB780911301909114018230A6
:1002C000910509F43FC08330910528F4009759F057
:1002D000019781F06DC08330910509F445C0049702
:1002E00009F454C065C081E090E0909314018093BC
:1002F000130165C080910E01813039F482E090E0F5
:1003000090931401809313015AC080910E018230A2
:1003100039F483E090E090931401809313014FC06F
:1003200080910E01843039F484E090E090931401C0
:100330008093130144C081E090E090931401809376
:1003400013013DC080910E01813039F482E090E0CC
:10035000909314018093130132C081E090E0909358
:100360001401809313012BC080910E01823039F467
:1003700083E090E0909314018093130120C081E00A
:1003800090E0909314018093130119C080910E01A5
:10039000843039F484E090E0909314018093130149
:1003A0000EC081E090E0909314018093130107C088
:1003B00081E090E0909314018093130100008091FC
:1003C00013019091140182309105A1F083309105C1
:1003D00028F4009721F1019739F022C0833091056C
:1003E00081F00497A9F01CC060E070E0CB010E948E
:1003F000900016C064EA70ED82E893E40E949000D9
:100400000FC06BE774ED82E993E40E94900008C08E
:1004100064EA70ED84EA93E40E94900001C0000059
:100420000000DF91CF910895CF93DF93CDB7DEB772
:1004300081E290E0FC01108282E290E02FEFFC016B
:10044000208384E290E02FEFFC01208385E290E09E
:1004500020E4FC0120830E943001109214011092CC
:10046000130180E290E0FC01808180958770809389
:100470000E010E945701F5CF0E94E90208F481E0C5
:1004800008950E9455020C9424030E941D0358F005
:100490000E94160340F029F45F3F29F00C940D03ED
:1004A00051110C9458030C9413030E94350368F304
:1004B0009923B1F3552391F3951B550BBB27AA271D
:1004C00062177307840738F09F5F5F4F220F331F57
:1004D000441FAA1FA9F335D00E2E3AF0E0E832D01F
:1004E00091505040E695001CCAF72BD0FE2F29D022
:1004F000660F771F881FBB1F261737074807AB07F4
:10050000B0E809F0BB0B802DBF01FF2793585F4F68
:100510003AF09E3F510578F00C940D030C9458036B
:100520005F3FE4F3983ED4F3869577956795B7954A
:10053000F7959F5FC9F7880F911D9695879597F955
:100540000895E1E0660F771F881FBB1F62177307CE
:100550008407BA0720F0621B730B840BBA0BEE1FE3
:1005600088F7E09508950E94BA026894B1110C943E
:10057000580308950E943D0388F09F5798F0B92FC3
:100580009927B751B0F0E1F0660F771F881F991FC8
:100590001AF0BA95C9F714C0B13091F00E94570310
:1005A000B1E008950C945703672F782F8827B85F20
:1005B00039F0B93FCCF3869577956795B395D9F720
:1005C0003EF490958095709561957F4F8F4F9F4F2A
:1005D0000895990F0008550FAA0BE0E8FEEF1616D4
:1005E0001706E807F907C0F012161306E407F50727
:1005F00098F0621B730B840B950B39F40A2661F09B
:10060000232B242B252B21F408950A2609F4A1403D
:10061000A6958FEF811D811D089597F99F6780E84A
:1006200070E060E008959FEF80EC089500240A9444
:100630001616170618060906089500240A941216BD
:100640001306140605060895092E0394000C11F4F0
:10065000882352F0BB0F40F4BF2B11F460FF04C09D
:100660006F5F7F4F8F4F9F4F089557FD9058440FF6
:10067000551F59F05F3F71F04795880F97FB991F01
:1006800061F09F3F79F087950895121613061406BE
:10069000551FF2CF4695F1DF08C01616170618064B
:1006A000991FF1CF86957105610508940895E89426
:1006B000BB2766277727CB0197F908950E94E902A7
:1006C00008F48FEF08950E9476030C9424030E948F
:1006D000160338F00E941D0320F0952311F00C94AE
:1006E0000D030C94130311240C9458030E9435033A
:1006F00070F3959FC1F3950F50E0551F629FF00175
:10070000729FBB27F00DB11D639FAA27F00DB11D8D
:10071000AA1F649F6627B00DA11D661F829F222716
:10072000B00DA11D621F739FB00DA11D621F839F9D
:10073000A00D611D221F749F3327A00D611D231F73
:10074000849F600D211D822F762F6A2F11249F57C1
:1007500050409AF0F1F088234AF0EE0FFF1FBB1FC4
:10076000661F771F881F91505040A9F79E3F510583
:1007700080F00C940D030C9458035F3FE4F3983E13
:10078000D4F3869577956795B795F795E7959F5F2D
:10079000C1F7FE2B880F911D9695879597F90895BF
:0407A000F894FFCFFB
:0E07A4000000000200000000670000000000DE
:00000001FF
